:100000000C942A000C94BC090C94E9090C94470048
:100010000C9447000C9447000C9447000C94470044
:100020000C9447000C9476070C9447000C944700FE
:100030000C9447000C9447000C9447000C94470024
:100040000C9447000C9447000C94160A0C94A307D8
:100050000C94470011241FBECFE5D4E0DEBFCDBF16
:1000600010E0A0E6B0E0E0E0F3E302C005900D92FE
:10007000A03DB107D9F710E0A0EDB0E001C01D929E
:10008000A23EB107E1F70E9442180C947E190C942D
:100090000000EF92FF920F931F937B018C0120E0F1
:1000A00030E040E05FE40E94F50388238CF0C80153
:1000B000B70120E030E040E05FE40E94C1010E940F
:1000C00055049B01AC01205030404040504806C0D0
:1000D000C801B7010E9455049B01AC01B901CA01D6
:1000E0001F910F91FF90EF900895A0E0B0E0EBE733
:1000F000F0E00C944719DC012B01FA019C9192303D
:1001000008F439C1EB018881823008F433C194309E
:1001100069F4843009F02FC111969C91119789815F
:10012000981709F428C1A0E6B0E025C1843009F48D
:1001300021C18230A9F4923009F01DC19A01AD01AC
:1001400088E0EA010990AE01E90109929E0181501F
:10015000C1F7E201898111969C918923818308C1AD
:10016000923009F407C112962D903C901397EB0141
:100170008A819B811496AD90BD90CD90DC901797AD
:10018000EC80FD800E811F819101281B390BB90184
:1001900037FF04C066277727621B730B6032710537
:1001A0000CF061C0121613066CF537014801062EDB
:1001B00004C096948794779467940A94D2F721E0C8
:1001C00030E040E050E004C0220F331F441F551FB1
:1001D0006A95D2F721503040404050402E213F21B7
:1001E00040235123211531054105510521F021E01E
:1001F00030E040E050E079018A01E628F72808293C
:1002000019293CC0232BD1F1260E371E350146019A
:10021000062E04C096948794779467940A94D2F734
:1002200021E030E040E050E004C0220F331F441FC3
:10023000551F6A95D2F721503040404050402A2146
:100240003B214C215D21211531054105510521F04E
:1002500021E030E040E050E059016A01A628B728CB
:10026000C828D9280BC0821593052CF01C01AA249C
:10027000BB24650103C0EE24FF24870111969C91E5
:10028000D20111968C91981709F445C0992339F041
:10029000A80197012A193B094C095D0906C0A6016E
:1002A00095012E193F09400B510B57FD08C01182D3
:1002B0003382228224833583468357831DC081E0A5
:1002C00081833382228288279927DC01821B930B4A
:1002D000A40BB50B84839583A683B7830DC0220F2F
:1002E000331F441F551F24833583468357838281E0
:1002F000938101979383828324813581468157813D
:10030000DA01C9010197A109B1098F5F9F4FAF4F72
:10031000BF4328F30BC0918333822282EA0CFB1C7B
:100320000C1D1D1DE482F5820683178383E0808304
:10033000248135814681578157FF1AC0C901AA27F8
:1003400097FDA095BA2F81709070A070B0705695EF
:10035000479537952795822B932BA42BB52B848318
:100360009583A683B7838281938101969383828349
:10037000DF0101C0D201CD01CDB7DEB7E2E10C94BF
:100380006319A0E2B0E0E7ECF1E00C945319698343
:100390007A838B839C832D833E834F835887E9E048
:1003A000EE2EF12CEC0EFD1ECE010196B7010E943F
:1003B0007E058E010F5E1F4FCE010596B8010E948B
:1003C0007E058A8991E089278A8BC701B801AE0131
:1003D000475E5F4F0E9475000E94A904A096E6E068
:1003E0000C946F19A0E2B0E0E8EFF1E00C9453191F
:1003F00069837A838B839C832D833E834F835887C5
:10040000F9E0EF2EF12CEC0EFD1ECE010196B701A6
:100410000E947E058E010F5E1F4FCE010596B8012A
:100420000E947E05C701B801AE01475E5F4F0E9482
:1004300075000E94A904A096E6E00C946F19A0E252
:10044000B0E0E5E2F2E00C94471969837A838B838C
:100450009C832D833E834F835887CE010196BE0136
:10046000675F7F4F0E947E05CE010596BE016F5EDD
:100470007F4F0E947E059985923088F0898982306D
:10048000C8F0943019F4823051F404C0843029F457
:10049000923081F480E690E0C6C0923049F420E0CA
:1004A0009A858A89981321E02A87CE010996BBC0D4
:1004B000823049F420E09A858A89981321E02A8BBA
:1004C000CE014196B0C02D843E844F8458886D88FB
:1004D0007E888F88988CEE24FF248701AA24BB2471
:1004E000650140E050E060E070E0E0E0F0E0C10174
:1004F00081709070892BE9F0E60CF71C081D191D1E
:100500009A01AB012A0D3B1D4C1D5D1D80E090E062
:10051000A0E0B0E0E614F7040805190520F481E036
:1005200090E0A0E0B0E0BA01A901480F591F6A1F8E
:100530007B1FAA0CBB1CCC1CDD1C97FE08C081E0F5
:1005400090E0A0E0B0E0A82AB92ACA2ADB2A3196B6
:10055000E032F10549F0660C771C881C991C569412
:10056000479437942794C3CFFA85EA892B893C892D
:100570008B859C85280F391F2E5F3F4F17C0CA01FE
:1005800081709070892B61F016950795F794E79428
:1005900080E090E0A0E0B0E8E82AF92A0A2B1B2BC3
:1005A00076956795579547952F5F3F4F77FDE7CF36
:1005B0000CC0440F551F661F771F17FD4160EE0CDE
:1005C000FF1C001F111F21503040403090E05907A0
:1005D00090E0690790E4790760F32B8F3C8FDB0193
:1005E000CA018F779070A070B07080349105A1051A
:1005F000B10561F447FD0AC0E114F10401051105DC
:1006000029F0405C5F4F6F4F7F4F40781A8EFE1786
:1006100011F081E08A8F4D8F5E8F6F8F78A383E01A
:10062000898FCE0149960E94A904A096E2E10C941C
:100630006319A8E1B0E0EFE1F3E00C944F1969838E
:100640007A838B839C832D833E834F835887B9E0C5
:10065000EB2EF12CEC0EFD1ECE010196B7010E948F
:100660007E058E010F5E1F4FCE010596B8010E94D8
:100670007E052985223008F47EC03989323010F495
:10068000B8017CC08A859A8989278A87243011F02D
:10069000223031F4231709F06EC060E670E06EC0BE
:1006A000343039F41D861E861F86188A1C861B86E8
:1006B00004C0323021F484E08987B7015FC02B8504
:1006C0003C858B899C89281B390B3C872B87ED84C3
:1006D000FE840F851889AD88BE88CF88D88CEA142F
:1006E000FB040C051D0540F4EE0CFF1C001F111F40
:1006F000215030403C872B8720E030E040E050E044
:1007000080E090E0A0E0B0E460E070E0EA14FB0478
:100710000C051D0540F0282B392B4A2B5B2BEA18C2
:10072000FB080C091D09B695A79597958795EE0CC2
:10073000FF1C001F111F6F5F7F4F6F31710531F775
:10074000DA01C9018F779070A070B0708034910584
:10075000A105B10561F427FD0AC0E114F10401050A
:10076000110529F0205C3F4F4F4F5F4F20782D87B8
:100770003E874F87588BBE01675F7F4FCB010E943A
:10078000A9046896EAE00C946B19A8E1B0E0EBECE0
:10079000F3E00C94531969837A838B839C832D83B4
:1007A0003E834F83588789E0E82EF12CEC0EFD1E26
:1007B000CE010196B7010E947E058E010F5E1F4F8C
:1007C000CE010596B8010E947E058985823040F0F1
:1007D0008989823028F0C701B8010E94F60501C05E
:1007E0008FEF6896E6E00C946F19A8E1B0E0EBEFAC
:1007F000F3E00C94531969837A838B839C832D8354
:100800003E834F83588789E0E82EF12CEC0EFD1EC5
:10081000CE010196B7010E947E058E010F5E1F4F2B
:10082000CE010596B8010E947E058985823040F090
:100830008989823028F0C701B8010E94F60501C0FD
:100840008FEF6896E6E00C946F19A8E1B0E0EBE258
:10085000F4E00C94531969837A838B839C832D83F2
:100860003E834F83588789E0E82EF12CEC0EFD1E65
:10087000CE010196B7010E947E058E010F5E1F4FCB
:10088000CE010596B8010E947E058985823040F030
:100890008989823028F0C701B8010E94F60501C09D
:1008A00081E06896E6E00C946F19ACE0B0E0EBE50F
:1008B000F4E00C94571969837A838B839C83CE016F
:1008C0000196BE016B5F7F4F0E947E058D81823055
:1008D00061F1823050F1843021F48E81882351F10E
:1008E0002EC02F81388537FD20C06E812F31310514
:1008F0001CF06623F9F023C08EE190E0821B930B7D
:1009000029853A854B855C8504C056954795379572
:1009100027958A95D2F76623B1F05095409530958A
:1009200021953F4F4F4F5F4F0EC020E030E040E039
:1009300050E009C02FEF3FEF4FEF5FE704C020E02A
:1009400030E040E050E8B901CA012C96E2E00C9496
:100950007319DF92EF92FF920F931F93FC01E480D3
:10096000F58006811781D1808081823048F480E053
:1009700090E0A0E1B0E0E82AF92A0A2B1B2BA5C0E1
:10098000843009F49FC0823021F4EE24FF248701D3
:1009900005C0E114F1040105110519F4E0E0F0E0EF
:1009A00096C0628173819FEF623879070CF05BC05B
:1009B00022E83FEF261B370B2A3131052CF020E0CF
:1009C00030E040E050E02AC0B801A701022E04C088
:1009D00076956795579547950A94D2F781E090E010
:1009E000A0E0B0E004C0880F991FAA1FBB1F2A9582
:1009F000D2F70197A109B1098E219F21A023B1232C
:100A00000097A105B10521F081E090E0A0E0B0E001
:100A10009A01AB01282B392B4A2B5B2BDA01C90138
:100A20008F779070A070B07080349105A105B105EA
:100A300039F427FF09C0205C3F4F4F4F5F4F04C080
:100A4000215C3F4F4F4F5F4FE0E0F0E02030A0E0EF
:100A50003A07A0E04A07A0E45A0710F0E1E0F0E00E
:100A600079018A0127C06038710564F5FB01E158FE
:100A7000FF4FD801C7018F779070A070B07080349D
:100A80009105A105B10539F4E7FE0DC080E490E0C1
:100A9000A0E0B0E004C08FE390E0A0E0B0E0E80E9A
:100AA000F91E0A1F1B1F17FF05C016950795F7941F
:100AB000E794319687E016950795F794E7948A9521
:100AC000D1F705C0EE24FF248701EFEFF0E06E2F91
:100AD000679566276795902F9F77D794DD24D794E5
:100AE0008E2F8695492F462B582F5D29B701CA01B5
:100AF0001F910F91FF90EF90DF900895FC01DB01B3
:100B0000408151812281622F6F7770E0221F22275E
:100B1000221F9381892F880F822B282F30E0991F65
:100B20009927991F11969C93119721153105A9F5C5
:100B3000411551056105710511F482E037C082E865
:100B40009FEF13969C938E9312979A01AB0167E0E7
:100B5000220F331F441F551F6A95D1F783E08C93F2
:100B60000DC0220F331F441F551F12968D919C916B
:100B70001397019713969C938E931297203080E0E1
:100B8000380780E0480780E4580758F314962D93FF
:100B90003D934D935C93179708952F3F310579F45A
:100BA000411551056105710519F484E08C93089590
:100BB00064FF03C081E08C9312C01C9210C02F57B9
:100BC000304013963C932E93129783E08C9387E0EA
:100BD000440F551F661F771F8A95D1F770641496CE
:100BE0004D935D936D937C93179708951F93DC014C
:100BF000FB019C91923008F447C08081823008F458
:100C000043C0943051F411961C91843099F5818140
:100C1000682F70E0611B71093FC0843021F0923071
:100C200031F48230B9F18181882389F12DC0119688
:100C30001C9111978230F1F081811817D9F4129626
:100C40002D913C911397828193818217930794F0A1
:100C500028173907BCF014968D919D910D90BC9189
:100C6000A02D2481358146815781281739074A07ED
:100C70005B0718F4112341F00AC082179307A407F9
:100C8000B50740F4112319F061E070E005C06FEF83
:100C90007FEF02C060E070E0CB011F910895DF9309
:100CA000CF93CDB7DEB7EBE2F0E082E08083EAE2FB
:100CB000F0E088E18083E0E4F0E086E88083E0E42F
:100CC000F0E01082E9E2F0E08CE08083CF91DF91E8
:100CD0000895DF93CF930F92CDB7DEB78983EBE210
:100CE000F0E08081882F90E0807290700097B9F3D7
:100CF000ECE2F0E0898180830F90CF91DF9108953D
:100D0000DF93CF93CDB7DEB7EBE2F0E080818823AD
:100D1000DCF7ECE2F0E08081CF91DF910895DF9382
:100D2000CF9300D00F92CDB7DEB79B838A83198211
:100D30000EC08981282F30E08A819B81FC01E20F5F
:100D4000F31F80810E94690689818F5F8983898171
:100D5000282F30E08A819B81FC01E20FF31F808104
:100D6000882339F70F900F900F90CF91DF9108955E
:100D70000F931F93DF93CF9300D00F92CDB7DEB7C1
:100D80009B838A8319828981282F30E08A819B8105
:100D90008C01020F131F0E948006F80180830FC090
:100DA00089818F5F89838981282F30E08A819B81A7
:100DB0008C01020F131F0E948006F8018083898135
:100DC000282F30E08A819B81FC01E20FF31F808194
:100DD000833231F78981282F30E08A819B81FC01A1
:100DE000E20FF31F10820F900F900F90CF91DF91C1
:100DF0001F910F910895DF93CF93CDB7DEB7E2E552
:100E0000F0E01082A9E5B0E0E9E5F0E080818160E2
:100E10008C93A9E5B0E0E9E5F0E080818D7F8C93CB
:100E2000A3E5B0E0E3E5F0E080818F7B8C93A3E560
:100E3000B0E0E3E5F0E08081877F8C93A3E5B0E04C
:100E4000E3E5F0E080818F7E8C93A3E5B0E0E3E5FD
:100E5000F0E080818F7D8C93A3E5B0E0E3E5F0E0E6
:100E6000808181608C93A3E5B0E0E3E5F0E08081D0
:100E70008D7F8C93A3E5B0E0E3E5F0E080818460B2
:100E80008C93CF91DF910895DF93CF9300D0CDB7AE
:100E9000DEB79A83898389819A819093D500809364
:100EA000D4000F900F90CF91DF910895DF93CF93EF
:100EB00000D0CDB7DEB79A83898389819A819093D8
:100EC000D7008093D6000F900F90CF91DF910895B7
:100ED000DF93CF93CDB7DEB7CF91DF910895DF9346
:100EE000CF93CDB7DEB7CF91DF9108951F920F92C8
:100EF0000FB60F9211242F933F934F935F936F93ED
:100F00007F938F939F93AF93BF93EF93FF93DF9361
:100F1000CF93CDB7DEB7E091DA00F091DB00099511
:100F2000CF91DF91FF91EF91BF91AF919F918F9101
:100F30007F916F915F914F913F912F910F900FBED5
:100F40000F901F9018951F920F920FB60F921124B9
:100F50002F933F934F935F936F937F938F939F93C1
:100F6000AF93BF93EF93FF93DF93CF93CDB7DEB7EC
:100F7000E091D800F091D9000995CF91DF91FF91D0
:100F8000EF91BF91AF919F918F917F916F915F9101
:100F90004F913F912F910F900FBE0F901F9018957A
:100FA000DF93CF93CDB7DEB788E697E09093DB0071
:100FB0008093DA008FE697E09093D9008093D80071
:100FC000E2E5F0E01082ECE5F0E08CE78083A3E559
:100FD000B0E0E3E5F0E08081877F8C93A3E5B0E0AB
:100FE000E3E5F0E080818F7B8C93A3E5B0E0E3E55F
:100FF000F0E0808181608C93A3E5B0E0E3E5F0E070
:1010000080818D7F8C93A3E5B0E0E3E5F0E0808103
:1010100084608C93A3E5B0E0E3E5F0E080818F7E0F
:101020008C93A3E5B0E0E3E5F0E080818F7D8C93C5
:10103000A9E5B0E0E9E5F0E0808181608C93CF9193
:10104000DF910895DF93CF930F92CDB7DEB78983F9
:101050008981813041F4A9E5B0E0E9E5F0E08081E3
:1010600081608C930AC08981882339F4A9E5B0E0B6
:10107000E9E5F0E080818E7F8C930F90CF91DF9136
:101080000895DF93CF930F92CDB7DEB7898389811F
:10109000813041F4A9E5B0E0E9E5F0E080818260CB
:1010A0008C930AC08981882339F4A9E5B0E0E9E589
:1010B000F0E080818D7F8C930F90CF91DF91089528
:1010C000DF93CF930F92CDB7DEB78983E2E5F0E0EF
:1010D000898180830F90CF91DF910895DF93CF9323
:1010E0000F92CDB7DEB78983ECE5F0E0898180838C
:1010F0000F90CF91DF910895DF93CF930F92CDB7EB
:10110000DEB789838981813041F4A3E5B0E0E3E56E
:10111000F0E0808180688C930AC08981882339F44B
:10112000A3E5B0E0E3E5F0E080818F778C930F904A
:10113000CF91DF910895DF93CF9300D0CDB7DEB785
:101140009A83898389819A819093DB008093DA0066
:101150000F900F90CF91DF910895DF93CF9300D040
:10116000CDB7DEB79A83898389819A819093D9001C
:101170008093D8000F900F90CF91DF910895DF9367
:10118000CF93CDB7DEB7EDE2F0E080E58083CF917D
:10119000DF910895DF93CF93CDB7DEB7EDE2F0E0B6
:1011A00080E48083CF91DF910895DF93CF930F92F6
:1011B000CDB7DEB78983EFE2F0E089818083EEE28C
:1011C000F0E080818823DCF70F90CF91DF910895C4
:1011D000DF93CF9300D00F92CDB7DEB79B838A8386
:1011E00019820EC08981282F30E08A819B81FC0101
:1011F000E20FF31F80810E94D50889818F5F898368
:101200008981282F30E08A819B81FC01E20FF31F46
:101210008081882339F70F900F900F90CF91DF9145
:101220000895DF93CF93CDB7DEB7EEE2F0E0808193
:101230008823DCF7EFE2F0E08081CF91DF91089521
:101240000F931F93DF93CF9300D00F92CDB7DEB7EC
:101250009B838A8319828981282F30E08A819B8130
:101260008C01020F131F0E941109F80180830FC027
:1012700089818F5F89838981282F30E08A819B81D2
:101280008C01020F131F0E941109F80180838981CC
:10129000282F30E08A819B81FC01E20FF31F8081BF
:1012A000833231F78981282F30E08A819B81FC01CC
:1012B000E20FF31F10820F900F900F90CF91DF91EC
:1012C0001F910F910895DF93CF93CDB7DEB7ABE5B4
:1012D000B0E0EBE5F0E0808180648C93A5E5B0E0C0
:1012E000E5E5F0E080818D7F8C93A5E5B0E0E5E554
:1012F000F0E0808181608C93AFE5B0E0EFE5F0E055
:10130000808180688C93CF91DF910895DF93CF9394
:1013100000D0CDB7DEB79A83898389819A81909373
:10132000DD008093DC000F900F90CF91DF91089546
:10133000DF93CF9300D0CDB7DEB79A8389838981BD
:101340009A819093DF008093DE000F900F90CF91F1
:10135000DF910895DF93CF9300D0CDB7DEB79A83A6
:10136000898389819A819093E1008093E0000F90B6
:101370000F90CF91DF9108951F920F920FB60F92A9
:1013800011242F933F934F935F936F937F938F938A
:101390009F93AF93BF93EF93FF93DF93CF93CDB71B
:1013A000DEB7E091DC00F091DD000995CF91DF918F
:1013B000FF91EF91BF91AF919F918F917F916F912D
:1013C0005F914F913F912F910F900FBE0F901F9003
:1013D00018951F920F920FB60F9211242F933F93DF
:1013E0004F935F936F937F938F939F93AF93BF932D
:1013F000EF93FF93DF93CF93CDB7DEB7E091DE009D
:10140000F091DF000995CF91DF91FF91EF91BF91AE
:10141000AF919F918F917F916F915F914F913F918C
:101420002F910F900FBE0F901F9018951F920F9243
:101430000FB60F9211242F933F934F935F936F93A7
:101440007F938F939F93AF93BF93EF93FF93DF931C
:10145000CF93CDB7DEB7E091E000F091E1000995C0
:10146000CF91DF91FF91EF91BF91AF919F918F91BC
:101470007F916F915F914F913F912F910F900FBE90
:101480000F901F901895DF93CF9300D0CDB7DEB7A4
:1014900089830F900F90CF91DF910895DF93CF93C1
:1014A00000D000D000D0CDB7DEB78B836C838B81AA
:1014B0008695869586958A838B81877089838A81B4
:1014C000282F30E03E832D838D819E8181309105D0
:1014D00009F443C02D813E81223031052CF48D81E9
:1014E0009E81009771F0BCC02D813E812230310574
:1014F00009F45FC08D819E818330910509F485C018
:10150000AFC08C818130A1F4ABE3B0E0EBE3F0E05D
:101510008081482F8981282F30E081E090E0022EE1
:1015200002C0880F991F0A94E2F7842B8C9398C00D
:10153000ABE3B0E0EBE3F0E08081482F8981282F16
:1015400030E081E090E0022E02C0880F991F0A94DB
:10155000E2F7809584238C9383C08C818130A1F441
:10156000A8E3B0E0E8E3F0E08081482F8981282FEC
:1015700030E081E090E0022E02C0880F991F0A94AB
:10158000E2F7842B8C936CC0A8E3B0E0E8E3F0E0D2
:101590008081482F8981282F30E081E090E0022E61
:1015A00002C0880F991F0A94E2F7809584238C93D8
:1015B00057C08C818130A1F4A5E3B0E0E5E3F0E011
:1015C0008081482F8981282F30E081E090E0022E31
:1015D00002C0880F991F0A94E2F7842B8C9340C0B5
:1015E000A5E3B0E0E5E3F0E08081482F8981282F72
:1015F00030E081E090E0022E02C0880F991F0A942B
:10160000E2F7809584238C932BC08C818130A1F4E8
:10161000A2E3B0E0E2E3F0E08081482F8981282F47
:1016200030E081E090E0022E02C0880F991F0A94FA
:10163000E2F7842B8C9314C0A2E3B0E0E2E3F0E085
:101640008081482F8981282F30E081E090E0022EB0
:1016500002C0880F991F0A94E2F7809584238C9327
:1016600026960FB6F894DEBF0FBECDBFCF91DF91A7
:101670000895DF93CF9300D000D0CDB7DEB7898334
:101680006A838981282F30E03C832B838B819C8166
:1016900081309105D1F02B813C81223031052CF431
:1016A0008B819C81009761F01EC02B813C81223090
:1016B000310581F08B819C818330910581F013C0CD
:1016C000EBE3F0E08A8180830EC0E8E3F0E08A81FA
:1016D000808309C0E5E3F0E08A81808304C0E2E30F
:1016E000F0E08A8180830F900F900F900F90CF9140
:1016F000DF910895DF93CF9300D000D0CDB7DEB750
:101700008AE190E09C838B831A8219821A82198263
:1017100057C189819A81880F991F880F991FFC01F1
:10172000E859FF4F8081882309F048C089819A8158
:10173000880F991F0196880F991FFC01E859FF4FE8
:1017400080818130E9F4AAE3B0E0EAE3F0E080814F
:10175000482F89819A81880F991F880F991FFC0152
:10176000E759FF4F8081282F30E081E090E0022E82
:1017700002C0880F991F0A94E2F7842B8C931BC137
:10178000AAE3B0E0EAE3F0E08081482F89819A8102
:10179000880F991F880F991FFC01E759FF4F80811F
:1017A000282F30E081E090E0022E02C0880F991FC0
:1017B0000A94E2F7809584238C93FDC089819A81F5
:1017C000880F991F880F991FFC01E859FF4F8081EE
:1017D000813009F048C089819A81880F991F01964C
:1017E000880F991FFC01E859FF4F80818130E9F48F
:1017F000A7E3B0E0E7E3F0E08081482F89819A8198
:10180000880F991F880F991FFC01E759FF4F8081AE
:10181000282F30E081E090E0022E02C0880F991F4F
:101820000A94E2F7842B8C93C6C0A7E3B0E0E7E309
:10183000F0E08081482F89819A81880F991F880F55
:10184000991FFC01E759FF4F8081282F30E081E08C
:1018500090E0022E02C0880F991F0A94E2F780954B
:1018600084238C93A8C089819A81880F991F880F3F
:10187000991FFC01E859FF4F8081823009F048C070
:1018800089819A81880F991F0196880F991FFC0101
:10189000E859FF4F80818130E9F4A4E3B0E0E4E34C
:1018A000F0E08081482F89819A81880F991F880FE5
:1018B000991FFC01E759FF4F8081282F30E081E01C
:1018C00090E0022E02C0880F991F0A94E2F7842B41
:1018D0008C9371C0A4E3B0E0E4E3F0E08081482F92
:1018E00089819A81880F991F880F991FFC01E759F8
:1018F000FF4F8081282F30E081E090E0022E02C06F
:10190000880F991F0A94E2F7809584238C9353C023
:1019100089819A81880F991F880F991FFC01E859C6
:10192000FF4F8081833009F046C089819A81880FFA
:10193000991F0196880F991FFC01E859FF4F80817C
:101940008130E9F4A1E3B0E0E1E3F0E08081482FE9
:1019500089819A81880F991F880F991FFC01E75987
:10196000FF4F8081282F30E081E090E0022E02C0FE
:10197000880F991F0A94E2F7842B8C931CC0A1E373
:10198000B0E0E1E3F0E08081482F89819A81880FFF
:10199000991F880F991FFC01E759FF4F8081282F5D
:1019A00030E081E090E002C0880F991F2A95E2F7AD
:1019B000809584238C9389819A8101969A83898367
:1019C00029813A818B819C81281739070CF4A1CE9B
:1019D0000F900F900F900F90CF91DF910895DF93AC
:1019E000CF93CDB7DEB7A6E2B0E0E6E2F0E08081CB
:1019F00080688C93A7E2B0E0E7E2F0E08081806449
:101A00008C93A7E2B0E0E7E2F0E0808180688C93FD
:101A1000A6E2B0E0E6E2F0E0808181608C93A6E28D
:101A2000B0E0E6E2F0E0808182608C93A6E2B0E074
:101A3000E6E2F0E0808184608C93CF91DF9108959D
:101A4000DF93CF930F92CDB7DEB78983A7E2B0E0E3
:101A5000E7E2F0E08081982F907E8981892B8C933A
:101A6000A6E2B0E0E6E2F0E0808180648C93E6E2FA
:101A7000F0E0808182958F70882F90E08170907067
:101A80000097A9F3A6E2B0E0E6E2F0E08081806191
:101A90008C93E4E2F0E0808191810F90CF91DF910F
:101AA00008950F931F93DF93CF93CDB7DEB7C15641
:101AB000D0400FB6F894DEBF0FBECDBFFE01EF5988
:101AC000FF4F808389E060E00E944E0A8AE060E078
:101AD0000E944E0AFE01EF59FF4F808188232CF4AB
:101AE00087E061E00E944E0A04C087E060E00E9447
:101AF0004E0AFE01EF59FF4F8081829586958695AB
:101B00008370882F90E081709070882329F086E0A0
:101B100061E00E944E0A04C086E060E00E944E0A26
:101B2000FE01EF59FF4F8081829586958770882F3F
:101B300090E081709070882329F085E061E00E9438
:101B40004E0A04C085E060E00E944E0AFE01EF5993
:101B5000FF4F808182958F70882F90E08170907008
:101B6000882329F084E061E00E944E0A04C084E0EA
:101B700060E00E944E0A8BE061E00E944E0AFE0186
:101B8000E35AFF4F80E090E0A0E2B1E480839183CC
:101B9000A283B3838E01075A1F4FFE01E35AFF4F02
:101BA00060817181828193812BEA3AEA4AEA5EE39D
:101BB0000E941F02DC01CB01F80180839183A28384
:101BC000B383FE01E75AFF4F608171818281938167
:101BD00020E030E040E85FE30E942504882334F4ED
:101BE000FE01E85AFF4F81E08083E0C0FE01E75A22
:101BF000FF4F608171818281938120E030E04FE767
:101C000053E40E94C50318160CF0C0C0FE01E35A4D
:101C1000FF4F608171818281938120E030E04AE74B
:101C200054E40E941903DC01CB01FE01EC5AFF4F82
:101C300080839183A283B3838E01005B1F4FFE01DB
:101C4000EC5AFF4F608171818281938120E030E006
:101C50004AE753E40E941F02DC01CB01F8018083B4
:101C60009183A283B383FE01E05BFF4F60817181AA
:101C70008281938120E030E040E85FE30E94250408
:101C8000882344F4FE01E25BFF4F81E090E0918302
:101C9000808364C0FE01E05BFF4F608171818281BF
:101CA000938120E03FEF4FE757E40E94C5031816E9
:101CB0000CF043C0FE01EC5AFF4F608171818281BC
:101CC000938120E030E040E251E40E941F02DC01F9
:101CD000CB018E01025B1F4FBC01CD010E94490068
:101CE000DC01CB01F801918380831FC0FE01E45B1E
:101CF000FF4F89E190E091838083FE01E45BFF4F19
:101D0000808191810197F1F7FE01E45BFF4F9183A0
:101D10008083DE01A25BBF4FFE01E25BFF4F80814B
:101D20009181019711969C938E93FE01E25BFF4F88
:101D3000808191810097D1F64BC08E01025B1F4FCD
:101D4000FE01E05BFF4F60817181828193810E947F
:101D50004900DC01CB01F80191838083DE01A65BA1
:101D6000BF4FFE01E25BFF4F8081918111969C93F2
:101D70008E93FE01E65BFF4F808191810197F1F721
:101D8000FE01E65BFF4F9183808322C08E01085ADB
:101D90001F4FFE01E75AFF4F60817181828193815D
:101DA0000E944900DC01CB01F8018083DE01A75BC2
:101DB000BF4FFE01E85AFF4F80818C93FE01E75B25
:101DC000FF4F80818A95F1F7FE01E75BFF4F80832B
:101DD0008BE060E00E944E0AFE01EB5BFF4F80E06B
:101DE00090E0A8E4B3E480839183A283B3838E015F
:101DF0000F5B1F4FFE01EB5BFF4F608171818281A2
:101E000093812BEA3AEA4AEA5EE30E941F02DC0170
:101E1000CB01F80180839183A283B383FE01EF5B42
:101E2000FF4F608171818281938120E030E040E842
:101E30005FE30E942504882334F481E0FE01E05C26
:101E4000FF4F80839DC0FE01EF5BFF4F608171817A
:101E50008281938120E030E04FE753E40E94C50384
:101E600018160CF07EC0FE01EB5BFF4F60817181A4
:101E70008281938120E030E04AE754E40E94190314
:101E8000DC01CB018CAF9DAFAEAFBFAF6CAD7DAD14
:101E90008EAD9FAD20E030E04AE753E40E941F0280
:101EA000DC01CB0188AF99AFAAAFBBAF68AD79AD0C
:101EB0008AAD9BAD20E030E040E85FE30E9425045E
:101EC00088232CF481E090E09FAB8EAB3FC068ADDF
:101ED00079AD8AAD9BAD20E03FEF4FE757E40E941C
:101EE000C50318164CF56CAD7DAD8EAD9FAD20E0F1
:101EF00030E040E251E40E941F02DC01CB01BC0152
:101F0000CD010E944900DC01CB019FAB8EAB0FC01D
:101F100089E190E09DAB8CAB8CA99DA90197F1F76D
:101F20009DAB8CAB8EA99FA901979FAB8EAB8EA961
:101F30009FA9009769F72DC068AD79AD8AAD9BADBB
:101F40000E944900DC01CB019FAB8EAB8EA99FA9FB
:101F50009BAB8AAB8AA99BA90197F1F79BAB8AAB94
:101F600018C0FE01EF5BFF4F608171818281938118
:101F70000E944900DC01CB01FE01E05CFF4F808341
:101F8000FE01E05CFF4F808189AB89A98A95F1F75A
:101F900089ABFE01EF59FF4F808186958695869526
:101FA000882F90E081709070882329F087E061E0AD
:101FB0000E944E0A04C087E060E00E944E0AFE01C3
:101FC000EF59FF4F808186958695882F90E081702C
:101FD0009070882329F086E061E00E944E0A04C0D8
:101FE00086E060E00E944E0AFE01EF59FF4F8081BB
:101FF0008695882F90E081709070882329F085E085
:1020000061E00E944E0A04C085E060E00E944E0A32
:10201000FE01EF59FF4F8081882F90E08170907012
:10202000882329F084E061E00E944E0A04C084E025
:1020300060E00E944E0A8BE061E00E944E0A80E060
:1020400090E0A0E2B1E48DA79EA7AFA7B8AB6DA5C5
:102050007EA58FA598A92BEA3AEA4AEA5EE30E9498
:102060001F02DC01CB0189A79AA7ABA7BCA769A572
:102070007AA58BA59CA520E030E040E85FE30E94B4
:10208000250488231CF481E088A791C069A57AA55E
:102090008BA59CA520E030E04FE753E40E94C503E8
:1020A00018160CF07BC06DA57EA58FA598A920E021
:1020B00030E04AE754E40E941903DC01CB018CA311
:1020C0009DA3AEA3BFA36CA17DA18EA19FA120E083
:1020D00030E04AE753E40E941F02DC01CB0188A3F1
:1020E00099A3AAA3BBA368A179A18AA19BA120E07F
:1020F00030E040E85FE30E94250488232CF481E06F
:1021000090E09F8F8E8F3FC068A179A18AA19BA18B
:1021100020E03FEF4FE757E40E94C50318164CF547
:102120006CA17DA18EA19FA120E030E040E251E4AE
:102130000E941F02DC01CB01BC01CD010E944900BD
:10214000DC01CB019F8F8E8F0FC089E190E09D8FC6
:102150008C8F8C8D9D8D0197F1F79D8F8C8F8E8D3F
:102160009F8D01979F8F8E8F8E8D9F8D009769F722
:1021700024C068A179A18AA19BA10E944900DC0129
:10218000CB019F8F8E8F8E8D9F8D9B8F8A8F8A8D97
:102190009B8D0197F1F79B8F8A8F0FC069A57AA558
:1021A0008BA59CA50E944900DC01CB0188A788A5CE
:1021B000898F898D8A95F1F7898F8BE060E00E9485
:1021C0004E0A80E090E0A8E4B3E48D8B9E8BAF8B49
:1021D000B88F6D897E898F89988D2BEA3AEA4AEA11
:1021E0005EE30E941F02DC01CB01898B9A8BAB8BD3
:1021F000BC8B69897A898B899C8920E030E040E832
:102200005FE30E94250488231CF481E0888B91C041
:1022100069897A898B899C8920E030E04FE753E413
:102220000E94C50318160CF07BC06D897E898F89CA
:10223000988D20E030E04AE754E40E941903DC0165
:10224000CB018C879D87AE87BF876C857D858E850A
:102250009F8520E030E04AE753E40E941F02DC0142
:10226000CB0188879987AA87BB87688579858A8506
:102270009B8520E030E040E85FE30E94250488234E
:102280002CF481E090E09F838E833FC06885798540
:102290008A859B8520E03FEF4FE757E40E94C50306
:1022A00018164CF56C857D858E859F8520E030E085
:1022B00040E251E40E941F02DC01CB01BC01CD01D0
:1022C0000E944900DC01CB019F838E830FC089E10E
:1022D00090E09D838C838C819D810197F1F79D8394
:1022E0008C838E819F8101979F838E838E819F81B6
:1022F000009769F724C0688579858A859B850E9447
:102300004900DC01CB019F838E838E819F819B835B
:102310008A838A819B810197F1F79B838A830FC00F
:1023200069897A898B899C890E944900DC01CB01EB
:10233000888B8889898389818A95F1F78983CF5928
:10234000DF4F0FB6F894DEBF0FBECDBFCF91DF9148
:102350001F910F910895DF93CF93CDB7DEB76C97A0
:102360000FB6F894DEBF0FBECDBF8AE060E00E94DA
:102370004E0A80E090E0A0EAB1E4898F9A8FAB8F9B
:10238000BC8F698D7A8D8B8D9C8D20E030E04AE783
:1023900053E40E941F02DC01CB018D8B9E8BAF8B1F
:1023A000B88F6D897E898F89988D20E030E040E874
:1023B0005FE30E94250488232CF481E090E09C8B4D
:1023C0008B8B3FC06D897E898F89988D20E03FEF90
:1023D0004FE757E40E94C50318164CF5698D7A8DB6
:1023E0008B8D9C8D20E030E040E251E40E941F0282
:1023F000DC01CB01BC01CD010E944900DC01CB0115
:102400009C8B8B8B0FC089E190E09A8B898B89899B
:102410009A890197F1F79A8B898B8B899C8901970F
:102420009C8B8B8B8B899C89009769F714C06D8975
:102430007E898F89988D0E944900DC01CB019C8B9D
:102440008B8B8B899C89988B8F878F859889019737
:10245000F1F7988B8F8783E30E94510D82E30E94EE
:10246000510D88E20E94510D8FE00E94510D86E0CF
:102470000E94510D81E00E94510D80E090E0A0EAA1
:10248000B1E48B879C87AD87BE876B857C858D8506
:102490009E8520E030E04AE753E40E941F02DC0101
:1024A000CB018F839887A987BA876F8178858985C3
:1024B0009A8520E030E040E85FE30E94250488230D
:1024C0002CF481E090E09E838D833FC06F817885FE
:1024D00089859A8520E03FEF4FE757E40E94C503C6
:1024E00018164CF56B857C858D859E8520E030E047
:1024F00040E251E40E941F02DC01CB01BC01CD018E
:102500000E944900DC01CB019E838D830FC089E1CD
:1025100090E09C838B838B819C810197F1F79C8356
:102520008B838D819E8101979E838D838D819E817A
:10253000009769F714C06F81788589859A850E9414
:102540004900DC01CB019E838D838D819E819A831E
:10255000898389819A810197F1F79A8389836C969F
:102560000FB6F894DEBF0FBECDBFCF91DF910895B7
:102570000F931F93DF93CF93CDB7DEB7C156D040F3
:102580000FB6F894DEBF0FBECDBFFE01EF59FF4F6F
:10259000808389E061E00E944E0A8AE060E00E9448
:1025A0004E0AFE01EF59FF4F808188232CF487E00B
:1025B00061E00E944E0A04C087E060E00E944E0A7B
:1025C000FE01EF59FF4F8081829586958695837035
:1025D000882F90E081709070882329F086E061E078
:1025E0000E944E0A04C086E060E00E944E0AFE018E
:1025F000EF59FF4F8081829586958770882F90E0F4
:1026000081709070882329F085E061E00E944E0A75
:1026100004C085E060E00E944E0AFE01EF59FF4FC2
:10262000808182958F70882F90E0817090708823D0
:1026300029F084E061E00E944E0A04C084E060E07A
:102640000E944E0A8BE061E00E944E0AFE01E35AAE
:10265000FF4F80E090E0A0E2B1E480839183A28309
:10266000B3838E01075A1F4FFE01E35AFF4F60816B
:102670007181828193812BEA3AEA4AEA5EE30E9401
:102680001F02DC01CB01F80180839183A283B38315
:10269000FE01E75AFF4F608171818281938120E0C2
:1026A00030E040E85FE30E942504882334F4FE0113
:1026B000E85AFF4F81E08083E0C0FE01E75AFF4FF8
:1026C000608171818281938120E030E04FE753E4A3
:1026D0000E94C50318160CF0C0C0FE01E35AFF4F5C
:1026E000608171818281938120E030E04AE754E487
:1026F0000E941903DC01CB01FE01EC5AFF4F8083DD
:102700009183A283B3838E01005B1F4FFE01EC5ABD
:10271000FF4F608171818281938120E030E04AE740
:1027200053E40E941F02DC01CB01F80180839183F6
:10273000A283B383FE01E05BFF4F608171818281E0
:10274000938120E030E040E85FE30E942504882385
:1027500044F4FE01E25BFF4F81E090E091838083CF
:1027600064C0FE01E05BFF4F6081718182819381D3
:1027700020E03FEF4FE757E40E94C50318160CF026
:1027800043C0FE01EC5AFF4F6081718182819381C9
:1027900020E030E040E251E40E941F02DC01CB0166
:1027A0008E01025B1F4FBC01CD010E944900DC017C
:1027B000CB01F801918380831FC0FE01E45BFF4FD2
:1027C00089E190E091838083FE01E45BFF4F80818B
:1027D00091810197F1F7FE01E45BFF4F91838083C4
:1027E000DE01A25BBF4FFE01E25BFF4F8081918162
:1027F000019711969C938E93FE01E25BFF4F8081BF
:1028000091810097D1F64BC08E01025B1F4FFE01F4
:10281000E05BFF4F60817181828193810E9449005A
:10282000DC01CB01F80191838083DE01A65BBF4F01
:10283000FE01E25BFF4F8081918111969C938E9304
:10284000FE01E65BFF4F808191810197F1F7FE0168
:10285000E65BFF4F9183808322C08E01085A1F4F91
:10286000FE01E75AFF4F60817181828193810E944E
:102870004900DC01CB01F8018083DE01A75BBF4F7B
:10288000FE01E85AFF4F80818C93FE01E75BFF4F0A
:1028900080818A95F1F7FE01E75BFF4F80838BE033
:1028A00060E00E944E0AFE01EB5BFF4F80E090E08B
:1028B000A8E4B3E480839183A283B3838E010F5B8A
:1028C0001F4FFE01EB5BFF4F60817181828193811D
:1028D0002BEA3AEA4AEA5EE30E941F02DC01CB01DE
:1028E000F80180839183A283B383FE01EF5BFF4FE6
:1028F000608171818281938120E030E040E85FE374
:102900000E942504882334F481E0FE01E05CFF4F3F
:1029100080839DC0FE01EF5BFF4F608171818281EA
:10292000938120E030E04FE753E40E94C50318167E
:102930000CF07EC0FE01EB5BFF4F608171818281F4
:10294000938120E030E04AE754E40E941903DC015F
:10295000CB018CAF9DAFAEAFBFAF6CAD7DAD8EADDB
:102960009FAD20E030E04AE753E40E941F02DC0103
:10297000CB0188AF99AFAAAFBBAF68AD79AD8AADD7
:102980009BAD20E030E040E85FE30E94250488230F
:102990002CF481E090E09FAB8EAB3FC068AD79AD89
:1029A0008AAD9BAD20E03FEF4FE757E40E94C5039F
:1029B00018164CF56CAD7DAD8EAD9FAD20E030E0CE
:1029C00040E251E40E941F02DC01CB01BC01CD01B9
:1029D0000E944900DC01CB019FAB8EAB0FC089E1A7
:1029E00090E09DAB8CAB8CA99DA90197F1F79DABB5
:1029F0008CAB8EA99FA901979FAB8EAB8EA99FA987
:102A0000009769F72DC068AD79AD8AAD9BAD0E9486
:102A10004900DC01CB019FAB8EAB8EA99FA99BAB7C
:102A20008AAB8AA99BA90197F1F79BAB8AAB18C027
:102A3000FE01EF5BFF4F60817181828193810E9473
:102A40004900DC01CB01FE01E05CFF4F8083FE0109
:102A5000E05CFF4F808189AB89A98A95F1F789AB4A
:102A6000FE01EF59FF4F8081869586958695882FC8
:102A700090E081709070882329F087E061E00E94E7
:102A80004E0A04C087E060E00E944E0AFE01EF5942
:102A9000FF4F808186958695882F90E08170907099
:102AA000882329F086E061E00E944E0A04C086E097
:102AB00060E00E944E0AFE01EF59FF4F808186952B
:102AC000882F90E081709070882329F085E061E084
:102AD0000E944E0A04C085E060E00E944E0AFE019A
:102AE000EF59FF4F8081882F90E08170907088238C
:102AF00029F084E061E00E944E0A04C084E060E0B6
:102B00000E944E0A8BE061E00E944E0A80E090E055
:102B1000A0E8BFE38DA79EA7AFA7B8AB6DA57EA524
:102B20008FA598A92BEA3AEA4AEA5EE30E941F02BF
:102B3000DC01CB0189A79AA7ABA7BCA769A57AA599
:102B40008BA59CA520E030E040E85FE30E942504CF
:102B500088231CF481E088A791C069A57AA58BA57C
:102B60009CA520E030E04FE753E40E94C50318160F
:102B70000CF07BC06DA57EA58FA598A920E030E064
:102B80004AE754E40E941903DC01CB018CA39DA306
:102B9000AEA3BFA36CA17DA18EA19FA120E030E0D8
:102BA0004AE753E40E941F02DC01CB0188A399A3EA
:102BB000AAA3BBA368A179A18AA19BA120E030E0D0
:102BC00040E85FE30E94250488232CF481E090E034
:102BD0009F8F8E8F3FC068A179A18AA19BA120E021
:102BE0003FEF4FE757E40E94C50318164CF56CA160
:102BF0007DA18EA19FA120E030E040E251E40E943F
:102C00001F02DC01CB01BC01CD010E944900DC01A7
:102C1000CB019F8F8E8F0FC089E190E09D8F8C8FAD
:102C20008C8D9D8D0197F1F79D8F8C8F8E8D9F8D53
:102C300001979F8F8E8F8E8D9F8D009769F724C08F
:102C400068A179A18AA19BA10E944900DC01CB0166
:102C50009F8F8E8F8E8D9F8D9B8F8A8F8A8D9B8D60
:102C60000197F1F79B8F8A8F0FC069A57AA58BA575
:102C70009CA50E944900DC01CB0188A788A5898F0B
:102C8000898D8A95F1F7898F8BE060E00E944E0A6A
:102C900080E090E0A8E4B3E48D8B9E8BAF8BB88F7F
:102CA0006D897E898F89988D2BEA3AEA4AEA5EE33C
:102CB0000E941F02DC01CB01898B9A8BAB8BBC8BF2
:102CC00069897A898B899C8920E030E040E85FE35C
:102CD0000E94250488231CF481E0888B91C06989B7
:102CE0007A898B899C8920E030E04FE753E40E9489
:102CF000C50318160CF07BC06D897E898F89988D6D
:102D000020E030E04AE754E40E941903DC01CB01E3
:102D10008C879D87AE87BF876C857D858E859F85D7
:102D200020E030E04AE753E40E941F02DC01CB01BF
:102D300088879987AA87BB87688579858A859B85D7
:102D400020E030E040E85FE30E94250488232CF473
:102D500081E090E09F838E833FC0688579858A8576
:102D60009B8520E03FEF4FE757E40E94C50318160C
:102D70004CF56C857D858E859F8520E030E040E2B6
:102D800051E40E941F02DC01CB01BC01CD010E9475
:102D90004900DC01CB019F838E830FC089E190E065
:102DA0009D838C838C819D810197F1F79D838C831A
:102DB0008E819F8101979F838E838E819F81009753
:102DC00069F724C0688579858A859B850E944900BA
:102DD000DC01CB019F838E838E819F819B838A83BD
:102DE0008A819B810197F1F79B838A830FC0698950
:102DF0007A898B899C890E944900DC01CB01888BF0
:102E00008889898389818A95F1F78983CF59DF4F32
:102E10000FB6F894DEBF0FBECDBFCF91DF911F91EB
:102E20000F910895DF93CF9300D000D0CDB7DEB7D8
:102E30009C838B831A8219820FC029813A818B81EE
:102E40009C81FC01E20FF31F80810E94B8128981EE
:102E50009A8101969A83898329813A818B819C8109
:102E6000FC01E20FF31F8081882339F70F900F9048
:102E70000F900F90CF91DF910895DF93CF93CDB74F
:102E8000DEB72E970FB6F894DEBF0FBECDBF81E040
:102E90000E94510D80E090E0A0E0B0E48B879C8719
:102EA000AD87BE876B857C858D859E8520E030E073
:102EB0004AE753E40E941F02DC01CB018F8398870D
:102EC000A987BA876F81788589859A8520E030E067
:102ED00040E85FE30E94250488232CF481E090E021
:102EE0009E838D833FC06F81788589859A8520E098
:102EF0003FEF4FE757E40E94C50318164CF56B856A
:102F00007C858D859E8520E030E040E251E40E9482
:102F10001F02DC01CB01BC01CD010E944900DC0194
:102F2000CB019E838D830FC089E190E09C838B83CE
:102F30008B819C810197F1F79C838B838D819E818E
:102F400001979E838D838D819E81009769F714C0C0
:102F50006F81788589859A850E944900DC01CB01C3
:102F60009E838D838D819E819A83898389819A81B5
:102F70000197F1F79A83898380E80E94510D2E967C
:102F80000FB6F894DEBF0FBECDBFCF91DF9108958D
:102F9000DF93CF9300D000D0CDB7DEB789836A83AB
:102FA0005C834B838A81882349F48981803130F4A2
:102FB00089818F7080680E94510D0BC08A81813099
:102FC00041F48981803128F489818F70806C0E945E
:102FD000510D8B819C810E9412170F900F900F90C2
:102FE0000F90CF91DF910895DF93CF930F92CDB7DC
:102FF000DEB789830E944F068981882F90E00E9466
:103000008F060F90CF91DF910895DF93CF93CDB7C7
:10301000DEB78091D0009091D10001969093D100BD
:103020008093D000CF91DF910895DF93CF93CDB7F8
:10303000DEB7E2E5F0E01082A3E5B0E0E3E5F0E022
:103040008081877F8C93A3E5B0E0E3E5F0E08081A9
:103050008F7B8C93A3E5B0E0E3E5F0E080818160B5
:103060008C93A3E5B0E0E3E5F0E080818D7F8C9365
:10307000A3E5B0E0E3E5F0E0808184608C93CF913C
:10308000DF910895DF93CF93CDB7DEB76D970FB67D
:10309000F894DEBF0FBECDBF1D8E0E947A0B0E943A
:1030A000AB110E943D170E94BF0880E090E0A8E4A9
:1030B000B2E4898F9A8FAB8FBC8F698D7A8D8B8D9F
:1030C0009C8D20E030E04AE755E40E941F02DC01BD
:1030D000CB018D8B9E8BAF8BB88F6D897E898F894D
:1030E000988D20E030E040E85FE30E9425048823CB
:1030F0002CF481E090E09C8B8B8B3FC06D897E89A6
:103100008F89988D20E03FEF4FE757E40E94C50379
:1031100018164CF5698D7A8D8B8D9C8D20E030E0F2
:1031200040E251E40E941F02DC01CB01BC01CD0151
:103130000E944900DC01CB019C8B8B8B0FC080E986
:1031400091E09A8B898B89899A890197F1F79A8BFB
:10315000898B8B899C8901979C8B8B8B8B899C8914
:10316000009769F714C06D897E898F89988D0E94B8
:103170004900DC01CB019C8B8B8B8B899C89988BC4
:103180008F878F8598890197F1F7988B8F878D8D21
:103190000E94F4178D8D882F90E00E9412178D8D5C
:1031A000882F90E00E94E80880E090E0AAEFB3E466
:1031B0008B879C87AD87BE876B857C858D859E853B
:1031C00020E030E04AE755E40E941F02DC01CB0119
:1031D0008F839887A987BA876F81788589859A8533
:1031E00020E030E040E85FE30E94250488232CF4CF
:1031F00081E090E09E838D833FC06F8178858985D3
:103200009A8520E03FEF4FE757E40E94C503181668
:103210004CF56B857C858D859E8520E030E040E215
:1032200051E40E941F02DC01CB01BC01CD010E94D0
:103230004900DC01CB019E838D830FC080E991E0C2
:103240009C838B838B819C810197F1F79C838B837B
:103250008D819E8101979E838D838D819E810097B4
:1032600069F795CF6F81788589859A850E94490095
:10327000DC01CB019E838D838D819E819A8389831E
:1032800089819A810197F1F79A83898380CF2F9260
:103290003F924F925F926F927F928F929F92AF92E6
:1032A000BF92CF92DF92EF92FF920F931F93CF9333
:1032B000DF93CDB7DEB7CA1BDB0B0FB6F894DEBFCA
:1032C0000FBECDBF09942A88398848885F846E84F0
:1032D0007D848C849B84AA84B984C884DF80EE803A
:1032E000FD800C811B81AA81B981CE0FD11D0FB643
:1032F000F894DEBF0FBECDBFED010895F894FFCF67
:1033000000000000000000000000000000010000BC
:10331000000201000003010000040100000501009B
:103320000006010000070100010101000102010087
:103330000103010001040100010501000106000074
:103340000107010002020100020301000204010062
:10335000020501000206010002070100030000004F
:103360000301010003030100030401000305010040
:00000001FF
