:100000000C942A000C94D2080C94FF080C942C0930
:100010000C9447000C9447000C9447000C94470044
:100020000C9447000C9447000C94A6070C94D3073B
:100030000C9447000C9447000C9447000C94470024
:100040000C9447000C9447000C9447000C94470014
:100050000C94470011241FBECFE5D8E0DEBFCDBF12
:1000600010E0A0E6B0E0E2E9FAE202C005900D92ED
:10007000AA3CB107D9F710E0AAECB0E001C01D928C
:10008000A83DB107E1F70E94E3130C9447150C94C7
:100090000000EF92FF920F931F937B018C0120E0F1
:1000A00030E040E05FE40E94F50388238CF0C80153
:1000B000B70120E030E040E05FE40E94C1010E940F
:1000C00055049B01AC01205030404040504806C0D0
:1000D000C801B7010E9455049B01AC01B901CA01D6
:1000E0001F910F91FF90EF900895A0E0B0E0EBE733
:1000F000F0E00C941015DC012B01FA019C91923078
:1001000008F439C1EB018881823008F433C194309E
:1001100069F4843009F02FC111969C91119789815F
:10012000981709F428C1A0E6B0E025C1843009F48D
:1001300021C18230A9F4923009F01DC19A01AD01AC
:1001400088E0EA010990AE01E90109929E0181501F
:10015000C1F7E201898111969C918923818308C1AD
:10016000923009F407C112962D903C901397EB0141
:100170008A819B811496AD90BD90CD90DC901797AD
:10018000EC80FD800E811F819101281B390BB90184
:1001900037FF04C066277727621B730B6032710537
:1001A0000CF061C0121613066CF537014801062EDB
:1001B00004C096948794779467940A94D2F721E0C8
:1001C00030E040E050E004C0220F331F441F551FB1
:1001D0006A95D2F721503040404050402E213F21B7
:1001E00040235123211531054105510521F021E01E
:1001F00030E040E050E079018A01E628F72808293C
:1002000019293CC0232BD1F1260E371E350146019A
:10021000062E04C096948794779467940A94D2F734
:1002200021E030E040E050E004C0220F331F441FC3
:10023000551F6A95D2F721503040404050402A2146
:100240003B214C215D21211531054105510521F04E
:1002500021E030E040E050E059016A01A628B728CB
:10026000C828D9280BC0821593052CF01C01AA249C
:10027000BB24650103C0EE24FF24870111969C91E5
:10028000D20111968C91981709F445C0992339F041
:10029000A80197012A193B094C095D0906C0A6016E
:1002A00095012E193F09400B510B57FD08C01182D3
:1002B0003382228224833583468357831DC081E0A5
:1002C00081833382228288279927DC01821B930B4A
:1002D000A40BB50B84839583A683B7830DC0220F2F
:1002E000331F441F551F24833583468357838281E0
:1002F000938101979383828324813581468157813D
:10030000DA01C9010197A109B1098F5F9F4FAF4F72
:10031000BF4328F30BC0918333822282EA0CFB1C7B
:100320000C1D1D1DE482F5820683178383E0808304
:10033000248135814681578157FF1AC0C901AA27F8
:1003400097FDA095BA2F81709070A070B0705695EF
:10035000479537952795822B932BA42BB52B848318
:100360009583A683B7838281938101969383828349
:10037000DF0101C0D201CD01CDB7DEB7E2E10C94BF
:100380002C15A0E2B0E0E7ECF1E00C941C156983B9
:100390007A838B839C832D833E834F835887E9E048
:1003A000EE2EF12CEC0EFD1ECE010196B7010E943F
:1003B0007E058E010F5E1F4FCE010596B8010E948B
:1003C0007E058A8991E089278A8BC701B801AE0131
:1003D000475E5F4F0E9475000E94A904A096E6E068
:1003E0000C943815A0E2B0E0E8EFF1E00C941C1595
:1003F00069837A838B839C832D833E834F835887C5
:10040000F9E0EF2EF12CEC0EFD1ECE010196B701A6
:100410000E947E058E010F5E1F4FCE010596B8012A
:100420000E947E05C701B801AE01475E5F4F0E9482
:1004300075000E94A904A096E6E00C943815A0E28D
:10044000B0E0E5E2F2E00C94101569837A838B83C7
:100450009C832D833E834F835887CE010196BE0136
:10046000675F7F4F0E947E05CE010596BE016F5EDD
:100470007F4F0E947E059985923088F0898982306D
:10048000C8F0943019F4823051F404C0843029F457
:10049000923081F480E690E0C6C0923049F420E0CA
:1004A0009A858A89981321E02A87CE010996BBC0D4
:1004B000823049F420E09A858A89981321E02A8BBA
:1004C000CE014196B0C02D843E844F8458886D88FB
:1004D0007E888F88988CEE24FF248701AA24BB2471
:1004E000650140E050E060E070E0E0E0F0E0C10174
:1004F00081709070892BE9F0E60CF71C081D191D1E
:100500009A01AB012A0D3B1D4C1D5D1D80E090E062
:10051000A0E0B0E0E614F7040805190520F481E036
:1005200090E0A0E0B0E0BA01A901480F591F6A1F8E
:100530007B1FAA0CBB1CCC1CDD1C97FE08C081E0F5
:1005400090E0A0E0B0E0A82AB92ACA2ADB2A3196B6
:10055000E032F10549F0660C771C881C991C569412
:10056000479437942794C3CFFA85EA892B893C892D
:100570008B859C85280F391F2E5F3F4F17C0CA01FE
:1005800081709070892B61F016950795F794E79428
:1005900080E090E0A0E0B0E8E82AF92A0A2B1B2BC3
:1005A00076956795579547952F5F3F4F77FDE7CF36
:1005B0000CC0440F551F661F771F17FD4160EE0CDE
:1005C000FF1C001F111F21503040403090E05907A0
:1005D00090E0690790E4790760F32B8F3C8FDB0193
:1005E000CA018F779070A070B07080349105A1051A
:1005F000B10561F447FD0AC0E114F10401051105DC
:1006000029F0405C5F4F6F4F7F4F40781A8EFE1786
:1006100011F081E08A8F4D8F5E8F6F8F78A383E01A
:10062000898FCE0149960E94A904A096E2E10C941C
:100630002C15A8E1B0E0EFE1F3E00C941815698304
:100640007A838B839C832D833E834F835887B9E0C5
:10065000EB2EF12CEC0EFD1ECE010196B7010E948F
:100660007E058E010F5E1F4FCE010596B8010E94D8
:100670007E052985223008F47EC03989323010F495
:10068000B8017CC08A859A8989278A87243011F02D
:10069000223031F4231709F06EC060E670E06EC0BE
:1006A000343039F41D861E861F86188A1C861B86E8
:1006B00004C0323021F484E08987B7015FC02B8504
:1006C0003C858B899C89281B390B3C872B87ED84C3
:1006D000FE840F851889AD88BE88CF88D88CEA142F
:1006E000FB040C051D0540F4EE0CFF1C001F111F40
:1006F000215030403C872B8720E030E040E050E044
:1007000080E090E0A0E0B0E460E070E0EA14FB0478
:100710000C051D0540F0282B392B4A2B5B2BEA18C2
:10072000FB080C091D09B695A79597958795EE0CC2
:10073000FF1C001F111F6F5F7F4F6F31710531F775
:10074000DA01C9018F779070A070B0708034910584
:10075000A105B10561F427FD0AC0E114F10401050A
:10076000110529F0205C3F4F4F4F5F4F20782D87B8
:100770003E874F87588BBE01675F7F4FCB010E943A
:10078000A9046896EAE00C943415A8E1B0E0EBEC1B
:10079000F3E00C941C1569837A838B839C832D83EF
:1007A0003E834F83588789E0E82EF12CEC0EFD1E26
:1007B000CE010196B7010E947E058E010F5E1F4F8C
:1007C000CE010596B8010E947E058985823040F0F1
:1007D0008989823028F0C701B8010E94F60501C05E
:1007E0008FEF6896E6E00C943815A8E1B0E0EBEFE7
:1007F000F3E00C941C1569837A838B839C832D838F
:100800003E834F83588789E0E82EF12CEC0EFD1EC5
:10081000CE010196B7010E947E058E010F5E1F4F2B
:10082000CE010596B8010E947E058985823040F090
:100830008989823028F0C701B8010E94F60501C0FD
:100840008FEF6896E6E00C943815A8E1B0E0EBE293
:10085000F4E00C941C1569837A838B839C832D832D
:100860003E834F83588789E0E82EF12CEC0EFD1E65
:10087000CE010196B7010E947E058E010F5E1F4FCB
:10088000CE010596B8010E947E058985823040F030
:100890008989823028F0C701B8010E94F60501C09D
:1008A00081E06896E6E00C943815ACE0B0E0EBE54A
:1008B000F4E00C94201569837A838B839C83CE01AA
:1008C0000196BE016B5F7F4F0E947E058D81823055
:1008D00061F1823050F1843021F48E81882351F10E
:1008E0002EC02F81388537FD20C06E812F31310514
:1008F0001CF06623F9F023C08EE190E0821B930B7D
:1009000029853A854B855C8504C056954795379572
:1009100027958A95D2F76623B1F05095409530958A
:1009200021953F4F4F4F5F4F0EC020E030E040E039
:1009300050E009C02FEF3FEF4FEF5FE704C020E02A
:1009400030E040E050E8B901CA012C96E2E00C9496
:100950003C15DF92EF92FF920F931F93FC01E4800E
:10096000F58006811781D1808081823048F480E053
:1009700090E0A0E1B0E0E82AF92A0A2B1B2BA5C0E1
:10098000843009F49FC0823021F4EE24FF248701D3
:1009900005C0E114F1040105110519F4E0E0F0E0EF
:1009A00096C0628173819FEF623879070CF05BC05B
:1009B00022E83FEF261B370B2A3131052CF020E0CF
:1009C00030E040E050E02AC0B801A701022E04C088
:1009D00076956795579547950A94D2F781E090E010
:1009E000A0E0B0E004C0880F991FAA1FBB1F2A9582
:1009F000D2F70197A109B1098E219F21A023B1232C
:100A00000097A105B10521F081E090E0A0E0B0E001
:100A10009A01AB01282B392B4A2B5B2BDA01C90138
:100A20008F779070A070B07080349105A105B105EA
:100A300039F427FF09C0205C3F4F4F4F5F4F04C080
:100A4000215C3F4F4F4F5F4FE0E0F0E02030A0E0EF
:100A50003A07A0E04A07A0E45A0710F0E1E0F0E00E
:100A600079018A0127C06038710564F5FB01E158FE
:100A7000FF4FD801C7018F779070A070B07080349D
:100A80009105A105B10539F4E7FE0DC080E490E0C1
:100A9000A0E0B0E004C08FE390E0A0E0B0E0E80E9A
:100AA000F91E0A1F1B1F17FF05C016950795F7941F
:100AB000E794319687E016950795F794E7948A9521
:100AC000D1F705C0EE24FF248701EFEFF0E06E2F91
:100AD000679566276795902F9F77D794DD24D794E5
:100AE0008E2F8695492F462B582F5D29B701CA01B5
:100AF0001F910F91FF90EF90DF900895FC01DB01B3
:100B0000408151812281622F6F7770E0221F22275E
:100B1000221F9381892F880F822B282F30E0991F65
:100B20009927991F11969C93119721153105A9F5C5
:100B3000411551056105710511F482E037C082E865
:100B40009FEF13969C938E9312979A01AB0167E0E7
:100B5000220F331F441F551F6A95D1F783E08C93F2
:100B60000DC0220F331F441F551F12968D919C916B
:100B70001397019713969C938E931297203080E0E1
:100B8000380780E0480780E4580758F314962D93FF
:100B90003D934D935C93179708952F3F310579F45A
:100BA000411551056105710519F484E08C93089590
:100BB00064FF03C081E08C9312C01C9210C02F57B9
:100BC000304013963C932E93129783E08C9387E0EA
:100BD000440F551F661F771F8A95D1F770641496CE
:100BE0004D935D936D937C93179708951F93DC014C
:100BF000FB019C91923008F447C08081823008F458
:100C000043C0943051F411961C91843099F5818140
:100C1000682F70E0611B71093FC0843021F0923071
:100C200031F48230B9F18181882389F12DC0119688
:100C30001C9111978230F1F081811817D9F4129626
:100C40002D913C911397828193818217930794F0A1
:100C500028173907BCF014968D919D910D90BC9189
:100C6000A02D2481358146815781281739074A07ED
:100C70005B0718F4112341F00AC082179307A407F9
:100C8000B50740F4112319F061E070E005C06FEF83
:100C90007FEF02C060E070E0CB011F9108950F93D9
:100CA0001F93DF93CF9300D000D0CDB7DEB7698319
:100CB0007A838B839C83AAE2B0E0EAE2F0E0808151
:100CC00088618C93A0E4B0E0E0E4F0E08081866885
:100CD0008C9309E210E089819A81AB81BC81880FF5
:100CE000991FAA1FBB1F880F991FAA1FBB1F880F20
:100CF000991FAA1FBB1F880F991FAA1FBB1F9C010A
:100D0000AD0180E094E2A4EFB0E0BC01CD010E940F
:100D1000EE14DA01C9018150F801808300E410E08B
:100D200089819A81AB81BC81880F991FAA1FBB1F43
:100D3000880F991FAA1FBB1F880F991FAA1FBB1FCF
:100D4000880F991FAA1FBB1F9C01AD0180E094E290
:100D5000A4EFB0E0BC01CD010E94EE14DA01C9019C
:100D60000197A109B109892F9A2FAB2FBB27F80151
:100D700080830F900F900F900F90CF91DF911F9174
:100D80000F910895DF93CF93CDB7DEB7EBE2F0E09C
:100D900080818823DCF7ECE2F0E08081CF91DF9165
:100DA0000895DF93CF930F92CDB7DEB78983ECE23E
:100DB000F0E089818083EBE2F0E08081882F90E091
:100DC000807290700097B9F30F90CF91DF910895E2
:100DD000DF93CF9300D000D0CDB7DEB79C838B8359
:100DE0001A8219820FC029813A818B819C81FC0172
:100DF000E20FF31F80810E94D10689819A810196BA
:100E00009A83898329813A818B819C81FC01E20F3D
:100E1000F31F8081882339F70F900F900F900F9068
:100E2000CF91DF9108950F931F93DF93CF9300D05D
:100E300000D0CDB7DEB79C838B831A8219822981BB
:100E40003A818B819C818C01020F131F0E94C20684
:100E5000F801808329813A818B819C81FC01E20F1A
:100E6000F31F80818A3089F489819A812B813C81AA
:100E7000F901E80FF91F10820F900F900F900F905B
:100E8000CF91DF911F910F91089589819A810196E9
:100E90009A838983D4CFDF93CF9300D0CDB7DEB7C9
:100EA0009A83898389819A819093CF008093CE0021
:100EB0000F900F90CF91DF910895DF93CF93CDB72F
:100EC000DEB7E2E5F0E01082A3E5B0E0E3E5F0E0B4
:100ED00080818F7B8C93A3E5B0E0E3E5F0E0808137
:100EE00088608C93A3E5B0E0E3E5F0E08081816069
:100EF0008C93A3E5B0E0E3E5F0E080818D7F8C93F7
:100F0000A3E5B0E0E3E5F0E0808184608C93A9E59F
:100F1000B0E0E9E5F0E080818E7F8C93A9E5B0E058
:100F2000E9E5F0E0808182608C93CF91DF910895B4
:100F3000DF93CF930F92CDB7DEB78983ECE5F0E076
:100F4000898180830F90CF91DF9108951F920F9236
:100F50000FB60F9211242F933F934F935F936F938C
:100F60007F938F939F93AF93BF93EF93FF93DF9301
:100F7000CF93CDB7DEB7E091CE00F091CF000995C9
:100F8000CF91DF91FF91EF91BF91AF919F918F91A1
:100F90007F916F915F914F913F912F910F900FBE75
:100FA0000F901F9018951F920F920FB60F92112459
:100FB0002F933F934F935F936F937F938F939F9361
:100FC000AF93BF93EF93FF93DF93CF93CDB7DEB78C
:100FD000E091CE00F091CF000995CF91DF91FF9184
:100FE000EF91BF91AF919F918F917F916F915F91A1
:100FF0004F913F912F910F900FBE0F901F9018951A
:10100000DF93CF93CDB7DEB7ADE2B0E0EDE2F0E035
:10101000808180618C93ADE2B0E0EDE2F0E0808110
:101020008F7D8C93ADE2B0E0EDE2F0E080818B7FCC
:101030008C93ADE2B0E0EDE2F0E08081877F8C93AD
:10104000ADE2B0E0EDE2F0E080818E7F8C93ADE226
:10105000B0E0EDE2F0E080818D7F8C93AEE2B0E015
:10106000EEE2F0E080818E7F8C93ADE2B0E0EDE2C5
:10107000F0E0808180648C93CF91DF910895DF93BD
:10108000CF9300D0CDB7DEB789836A838A8160E0D1
:101090000E946409EFE2F0E089818083EEE2F0E0F3
:1010A00080818823DCF7EFE2F0E0808189838A8108
:1010B00061E00E94640989810F900F90CF91DF91C8
:1010C0000895DF93CF930F92CDB7DEB78983EFE218
:1010D000F0E089818083EEE2F0E080818823DCF714
:1010E000EFE2F0E08081898389810F90CF91DF91D9
:1010F0000895DF93CF93CDB7DEB7ABE5B0E0EBE576
:10110000F0E0808180648C93A5E5B0E0E5E5F0E057
:1011100080818D7F8C93A5E5B0E0E5E5F0E08081EE
:1011200081608C93AFE5B0E0EFE5F0E0808180680E
:101130008C93CF91DF910895DF93CF9300D0CDB7FB
:10114000DEB79A83898389819A819093D1008093B5
:10115000D0000F900F90CF91DF910895DF93CF9340
:1011600000D0CDB7DEB79A83898389819A81909325
:10117000D3008093D2000F900F90CF91DF9108950C
:10118000DF93CF9300D0CDB7DEB79A83898389816F
:101190009A819093D5008093D4000F900F90CF91B7
:1011A000DF9108951F920F920FB60F9211242F9383
:1011B0003F934F935F936F937F938F939F93AF93DF
:1011C000BF93EF93FF93DF93CF93CDB7DEB7E0915B
:1011D000D000F091D1000995CF91DF91FF91EF916F
:1011E000BF91AF919F918F917F916F915F914F913F
:1011F0003F912F910F900FBE0F901F9018951F9247
:101200000F920FB60F9211242F933F934F935F933A
:101210006F937F938F939F93AF93BF93EF93FF93BE
:10122000DF93CF93CDB7DEB7E091D200F091D3003A
:101230000995CF91DF91FF91EF91BF91AF919F9170
:101240008F917F916F915F914F913F912F910F906F
:101250000FBE0F901F9018951F920F920FB60F920E
:1012600011242F933F934F935F936F937F938F93AB
:101270009F93AF93BF93EF93FF93DF93CF93CDB73C
:10128000DEB7E091D400F091D5000995CF91DF91C0
:10129000FF91EF91BF91AF919F918F917F916F914E
:1012A0005F914F913F912F910F900FBE0F901F9024
:1012B0001895DF93CF9300D0CDB7DEB789830F9019
:1012C0000F90CF91DF910895DF93CF9300D000D09E
:1012D00000D0CDB7DEB78B836C838B8186958695E6
:1012E00086958A838B81877089838A81282F30E055
:1012F0003E832D838D819E818130910509F443C009
:101300002D813E81223031052CF48D819E81009704
:1013100071F0BCC02D813E812230310509F45FC0DF
:101320008D819E818330910509F485C0AFC08C8189
:101330008130A1F4ABE3B0E0EBE3F0E08081482F33
:101340008981282F30E081E090E0022E02C0880FD2
:10135000991F0A94E2F7842B8C9398C0ABE3B0E01A
:10136000EBE3F0E08081482F8981282F30E081E095
:1013700090E0022E02C0880F991F0A94E2F7809530
:1013800084238C9383C08C818130A1F4A8E3B0E0E6
:10139000E8E3F0E08081482F8981282F30E081E068
:1013A00090E0022E02C0880F991F0A94E2F7842B66
:1013B0008C936CC0A8E3B0E0E8E3F0E08081482FB4
:1013C0008981282F30E081E090E0022E02C0880F52
:1013D000991F0A94E2F7809584238C9357C08C81DF
:1013E0008130A1F4A5E3B0E0E5E3F0E08081482F8F
:1013F0008981282F30E081E090E0022E02C0880F22
:10140000991F0A94E2F7842B8C9340C0A5E3B0E0C7
:10141000E5E3F0E08081482F8981282F30E081E0EA
:1014200090E0022E02C0880F991F0A94E2F780957F
:1014300084238C932BC08C818130A1F4A2E3B0E093
:10144000E2E3F0E08081482F8981282F30E081E0BD
:1014500090E0022E02C0880F991F0A94E2F7842BB5
:101460008C9314C0A2E3B0E0E2E3F0E08081482F67
:101470008981282F30E081E090E0022E02C0880FA1
:10148000991F0A94E2F7809584238C9326960FB6D1
:10149000F894DEBF0FBECDBFCF91DF910895DF93EB
:1014A000CF9300D000D0CDB7DEB788E190E09C8329
:1014B0008B831A8219821A82198257C189819A8173
:1014C000880F991F880F991FFC01E859FF4F8081F1
:1014D000882309F048C089819A81880F991F019655
:1014E000880F991FFC01E859FF4F80818130E9F492
:1014F000AAE3B0E0EAE3F0E08081482F89819A8195
:10150000880F991F880F991FFC01E759FF4F8081B1
:10151000282F30E081E090E0022E02C0880F991F52
:101520000A94E2F7842B8C931BC1AAE3B0E0EAE3B0
:10153000F0E08081482F89819A81880F991F880F58
:10154000991FFC01E759FF4F8081282F30E081E08F
:1015500090E0022E02C0880F991F0A94E2F780954E
:1015600084238C93FDC089819A81880F991F880FED
:10157000991FFC01E859FF4F8081813009F048C074
:1015800089819A81880F991F0196880F991FFC0104
:10159000E859FF4F80818130E9F4A7E3B0E0E7E349
:1015A000F0E08081482F89819A81880F991F880FE8
:1015B000991FFC01E759FF4F8081282F30E081E01F
:1015C00090E0022E02C0880F991F0A94E2F7842B44
:1015D0008C93C6C0A7E3B0E0E7E3F0E08081482F3A
:1015E00089819A81880F991F880F991FFC01E759FB
:1015F000FF4F8081282F30E081E090E0022E02C072
:10160000880F991F0A94E2F7809584238C93A8C0D1
:1016100089819A81880F991F880F991FFC01E859C9
:10162000FF4F8081823009F048C089819A81880FFC
:10163000991F0196880F991FFC01E859FF4F80817F
:101640008130E9F4A4E3B0E0E4E3F0E08081482FE6
:1016500089819A81880F991F880F991FFC01E7598A
:10166000FF4F8081282F30E081E090E0022E02C001
:10167000880F991F0A94E2F7842B8C9371C0A4E31E
:10168000B0E0E4E3F0E08081482F89819A81880FFF
:10169000991F880F991FFC01E759FF4F8081282F60
:1016A00030E081E090E0022E02C0880F991F0A947A
:1016B000E2F7809584238C9353C089819A81880FA7
:1016C000991F880F991FFC01E859FF4F80818330D3
:1016D00009F046C089819A81880F991F0196880F69
:1016E000991FFC01E859FF4F80818130E9F4A1E3A3
:1016F000B0E0E1E3F0E08081482F89819A81880F92
:10170000991F880F991FFC01E759FF4F8081282FEF
:1017100030E081E090E0022E02C0880F991F0A9409
:10172000E2F7842B8C931CC0A1E3B0E0E1E3F0E08E
:101730008081482F89819A81880F991F880F991F6E
:10174000FC01E759FF4F8081282F30E081E090E0D5
:1017500002C0880F991F2A95E2F7809584238C9305
:1017600089819A8101969A83898329813A818B8123
:101770009C81281739070CF4A1CE0F900F900F9081
:101780000F90CF91DF910895DF93CF93CDB7DEB760
:10179000A6E2B0E0E6E2F0E0808180688C93A7E208
:1017A000B0E0E7E2F0E0808180648C93A7E2B0E0F3
:1017B000E7E2F0E0808180688C93A6E2B0E0E6E2A8
:1017C000F0E0808181608C93A6E2B0E0E6E2F0E098
:1017D000808182608C93A6E2B0E0E6E2F0E0808156
:1017E00084608C93CF91DF910895DF93CF930F9214
:1017F000CDB7DEB78983A7E2B0E0E7E2F0E0808111
:10180000982F907E8981892B8C93A6E2B0E0E6E246
:10181000F0E0808180648C93E6E2F0E08081829544
:101820008F70882F90E0817090700097A9F3A6E2E6
:10183000B0E0E6E2F0E0808180618C93E4E2F0E0E9
:10184000808191810F90CF91DF910895DF93CF93A5
:10185000CDB7DEB72E970FB6F894DEBF0FBECDBF63
:101860008AE060E00E94640980E090E0A0EAB1E4D0
:101870008B879C87AD87BE876B857C858D859E8594
:1018800020E030E04AE755E40E941F02DC01CB0172
:101890008F839887A987BA876F81788589859A858C
:1018A00020E030E040E85FE30E94250488232CF428
:1018B00081E090E09E838D833FC06F81788589852C
:1018C0009A8520E03FEF4FE757E40E94C5031816C2
:1018D0004CF56B857C858D859E8520E030E040E26F
:1018E00051E40E941F02DC01CB01BC01CD010E942A
:1018F0004900DC01CB019E838D830FC080E991E01C
:101900009C838B838B819C810197F1F79C838B83D4
:101910008D819E8101979E838D838D819E8100970D
:1019200069F714C06F81788589859A850E9449007E
:10193000DC01CB019E838D838D819E819A83898377
:1019400089819A810197F1F79A83898388E20E94BD
:1019500021108FE00E94211086E00E94211081E07A
:101960000E9421102E960FB6F894DEBF0FBECDBF99
:10197000CF91DF9108950F931F93DF93CF93CDB74E
:10198000DEB7C755D0400FB6F894DEBF0FBECDBF4F
:10199000FE01E95AFF4F808389E061E00E946409FB
:1019A0008AE060E00E946409ABE3B0E0EBE3F0E0C2
:1019B0008081982F9F70FE01E95AFF4F8081807FC0
:1019C000892B8C938BE061E00E946409FE01ED5A43
:1019D000FF4F80E090E0A0E2B1E480839183A28396
:1019E000B3838E01015B1F4FFE01ED5AFF4F6081F3
:1019F0007181828193812BEA3AEA4AEA50E40E949B
:101A00001F02DC01CB01F80180839183A283B383A1
:101A1000FE01E15BFF4F608171818281938120E053
:101A200030E040E85FE30E942504882334F4FE019F
:101A3000E25BFF4F81E08083E0C0FE01E15BFF4F8E
:101A4000608171818281938120E030E04FE753E42F
:101A50000E94C50318160CF0C0C0FE01ED5AFF4FDE
:101A6000608171818281938120E030E04AE754E413
:101A70000E941903DC01CB01FE01E65BFF4F80836E
:101A80009183A283B3838E010A5B1F4FFE01E65B45
:101A9000FF4F608171818281938120E030E04AE7CD
:101AA00055E40E941F02DC01CB01F8018083918381
:101AB000A283B383FE01EA5BFF4F60817181828163
:101AC000938120E030E040E85FE30E942504882312
:101AD00044F4FE01EC5BFF4F81E090E09183808352
:101AE00064C0FE01EA5BFF4F608171818281938156
:101AF00020E03FEF4FE757E40E94C50318160CF0B3
:101B000043C0FE01E65BFF4F60817181828193815A
:101B100020E030E040E251E40E941F02DC01CB01F2
:101B20008E010C5B1F4FBC01CD010E944900DC01FE
:101B3000CB01F801918380831FC0FE01EE5BFF4F54
:101B400080E991E091838083FE01EE5BFF4F80810D
:101B500091810197F1F7FE01EE5BFF4F9183808346
:101B6000DE01AC5BBF4FFE01EC5BFF4F80819181DA
:101B7000019711969C938E93FE01EC5BFF4F808141
:101B800091810097D1F642C08E010C5B1F4FFE0180
:101B9000EA5BFF4F60817181828193810E944900DD
:101BA000DC01CB01F80191838083DE01A05CBF4F93
:101BB000FE01EC5BFF4F8081918111969C938E9387
:101BC000FE01E05CFF4F808191810197F1F7FE01FA
:101BD000E05CFF4F9183808319C08E01025B1F4F31
:101BE000FE01E15BFF4F60817181828193810E94E0
:101BF0004900DC01CB01F8018083FE01E25BFF4F6D
:101C000080818FAF8FAD8A95F1F78FAF8BE060E069
:101C10000E94640980E090E0A8E4B3E48BAF9CAF3D
:101C2000ADAFBEAF6BAD7CAD8DAD9EAD2BEA3AEAEC
:101C30004AEA50E40E941F02DC01CB018FAB98AF4F
:101C4000A9AFBAAF6FA978AD89AD9AAD20E030E009
:101C500040E85FE30E94250488231CF481E08EABFA
:101C600091C06FA978AD89AD9AAD20E030E04FE723
:101C700053E40E94C50318160CF07BC06BAD7CAD1D
:101C80008DAD9EAD20E030E04AE754E40E94190398
:101C9000DC01CB018AAB9BABACABBDAB6AA97BA92A
:101CA0008CA99DA920E030E04AE755E40E941F027C
:101CB000DC01CB018EA79FA7A8ABB9AB6EA57FA512
:101CC00088A999A920E030E040E85FE30E9425045C
:101CD00088232CF481E090E09DA78CA73FC06EA5DF
:101CE0007FA588A999A920E03FEF4FE757E40E941C
:101CF000C50318164CF56AA97BA98CA99DA920E0FB
:101D000030E040E251E40E941F02DC01CB01BC0143
:101D1000CD010E944900DC01CB019DA78CA70FC01B
:101D200080E991E09BA78AA78AA59BA50197F1F777
:101D30009BA78AA78CA59DA501979DA78CA78CA57D
:101D40009DA5009769F724C06EA57FA588A999A9CC
:101D50000E944900DC01CB019DA78CA78CA59DA505
:101D600099A788A788A599A50197F1F799A788A7AA
:101D70000FC06FA978AD89AD9AAD0E944900DC0112
:101D8000CB018EAB8EA98FA38FA18A95F1F78FA37C
:101D9000ABE3B0E0EBE3F0E08081282F2F70FE0191
:101DA000E95AFF4F8081882F90E082959295907F2D
:101DB0009827807F9827822B8C938BE061E00E948C
:101DC000640980E090E0A0E2B1E48BA39CA3ADA302
:101DD000BEA36BA17CA18DA19EA12BEA3AEA4AEA9F
:101DE00050E40E941F02DC01CB018F8F98A3A9A3AE
:101DF000BAA36F8D78A189A19AA120E030E040E8D4
:101E00005FE30E94250488231CF481E08E8F91C03B
:101E10006F8D78A189A19AA120E030E04FE753E4CB
:101E20000E94C50318160CF07BC06BA17CA18DA18C
:101E30009EA120E030E04AE754E40E941903DC014F
:101E4000CB018A8F9B8FAC8FBD8F6A8D7B8D8C8DE4
:101E50009D8D20E030E04AE755E40E941F02DC013E
:101E6000CB018E8B9F8BA88FB98F6E897F89888DD0
:101E7000998D20E030E040E85FE30E94250488234C
:101E80002CF481E090E09D8B8C8B3FC06E897F8924
:101E9000888D998D20E03FEF4FE757E40E94C503FE
:101EA00018164CF56A8D7B8D8C8D9D8D20E030E071
:101EB00040E251E40E941F02DC01CB01BC01CD01D4
:101EC0000E944900DC01CB019D8B8C8B0FC080E907
:101ED00091E09B8B8A8B8A899B890197F1F79B8B79
:101EE0008A8B8C899D8901979D8B8C8B8C899D8990
:101EF000009769F724C06E897F89888D998D0E942B
:101F00004900DC01CB019D8B8C8B8C899D89998B41
:101F1000888B888999890197F1F7998B888B0FC0F5
:101F20006F8D78A189A19AA10E944900DC01CB01A3
:101F30008E8F8E8D8F878F858A95F1F78F878BE0B7
:101F400060E00E94640980E090E0A0E2B1E48B8749
:101F50009C87AD87BE876B857C858D859E8520E0BF
:101F600030E04AE755E40E941F02DC01CB018F8379
:101F70009887A987BA876F81788589859A8520E0B7
:101F800030E040E85FE30E94250488232CF481E0E0
:101F900090E09E838D833FC06F81788589859A8587
:101FA00020E03FEF4FE757E40E94C50318164CF5B9
:101FB0006B857C858D859E8520E030E040E251E494
:101FC0000E941F02DC01CB01BC01CD010E9449002F
:101FD000DC01CB019E838D830FC080E991E09C835F
:101FE0008B838B819C810197F1F79C838B838D81FF
:101FF0009E8101979E838D838D819E81009769F7D5
:1020000014C06F81788589859A850E944900DC011A
:10201000CB019E838D838D819E819A838983898163
:102020009A810197F1F79A838983C95ADF4F0FB6D6
:10203000F894DEBF0FBECDBFCF91DF911F910F91FE
:1020400008950F931F93DF93CF93CDB7DEB7C75596
:10205000D0400FB6F894DEBF0FBECDBFFE01E95AE7
:10206000FF4F808389E060E00E9464098AE060E0BD
:102070000E946409ABE3B0E0EBE3F0E08081982FCD
:102080009F70FE01E95AFF4F8081807F892B8C93DE
:102090008BE061E00E946409FE01ED5AFF4F80E091
:1020A00090E0A0E2B1E480839183A283B3838E01A8
:1020B000015B1F4FFE01ED5AFF4F608171818281EC
:1020C00093812BEA3AEA4AEA50E40E941F02DC01BB
:1020D000CB01F80180839183A283B383FE01E15B8E
:1020E000FF4F608171818281938120E030E040E880
:1020F0005FE30E942504882334F4FE01E25BFF4F76
:1021000081E08083E0C0FE01E15BFF4F608171816F
:102110008281938120E030E04FE753E40E94C503C1
:1021200018160CF0C0C0FE01ED5AFF4F608171819E
:102130008281938120E030E04AE754E40E94190351
:10214000DC01CB01FE01E65BFF4F80839183A2831C
:10215000B3838E010A5B1F4FFE01E65BFF4F608178
:1021600071818281938120E030E04AE755E40E944A
:102170001F02DC01CB01F80180839183A283B3832A
:10218000FE01EA5BFF4F608171818281938120E0D3
:1021900030E040E85FE30E942504882344F4FE0118
:1021A000EC5BFF4F81E090E09183808364C0FE018F
:1021B000EA5BFF4F608171818281938120E03FEF74
:1021C0004FE757E40E94C50318160CF043C0FE0108
:1021D000E65BFF4F608171818281938120E030E076
:1021E00040E251E40E941F02DC01CB018E010C5B36
:1021F0001F4FBC01CD010E944900DC01CB01F80159
:10220000918380831FC0FE01EE5BFF4F80E991E068
:1022100091838083FE01EE5BFF4F80819181019766
:10222000F1F7FE01EE5BFF4F91838083DE01AC5B33
:10223000BF4FFE01EC5BFF4F8081918101971196AA
:102240009C938E93FE01EC5BFF4F80819181009700
:10225000D1F642C08E010C5B1F4FFE01EA5BFF4FBF
:1022600060817181828193810E944900DC01CB01F0
:10227000F80191838083DE01A05CBF4FFE01EC5B1F
:10228000FF4F8081918111969C938E93FE01E05CBB
:10229000FF4F808191810197F1F7FE01E05CFF4FD4
:1022A0009183808319C08E01025B1F4FFE01E15BA9
:1022B000FF4F60817181828193810E944900DC011E
:1022C000CB01F8018083FE01E25BFF4F80818FAF7D
:1022D0008FAD8A95F1F78FAF8BE060E00E946409C3
:1022E00080E090E0A8E4B3E48BAF9CAFADAFBEAFAD
:1022F0006BAD7CAD8DAD9EAD2BEA3AEA4AEA50E477
:102300000E941F02DC01CB018FAB98AFA9AFBAAF1F
:102310006FA978AD89AD9AAD20E030E040E85FE389
:102320000E94250488231CF481E08EAB91C06FA924
:1023300078AD89AD9AAD20E030E04FE753E40E94DC
:10234000C50318160CF07BC06BAD7CAD8DAD9EAD9A
:1023500020E030E04AE754E40E941903DC01CB019D
:102360008AAB9BABACABBDAB6AA97BA98CA99DA981
:1023700020E030E04AE755E40E941F02DC01CB0177
:102380008EA79FA7A8ABB9AB6EA57FA588A999A971
:1023900020E030E040E85FE30E94250488232CF42D
:1023A00081E090E09DA78CA73FC06EA57FA588A97E
:1023B00099A920E03FEF4FE757E40E94C5031816A4
:1023C0004CF56AA97BA98CA99DA920E030E040E2E8
:1023D00051E40E941F02DC01CB01BC01CD010E942F
:1023E0004900DC01CB019DA78CA70FC080E991E0DB
:1023F0009BA78AA78AA59BA50197F1F79BA78AA708
:102400008CA59DA501979DA78CA78CA59DA5009740
:1024100069F724C06EA57FA588A999A90E944900E3
:10242000DC01CB019DA78CA78CA59DA599A788A7AA
:1024300088A599A50197F1F799A788A70FC06FA95B
:1024400078AD89AD9AAD0E944900DC01CB018EAB1D
:102450008EA98FA38FA18A95F1F78FA3ABE3B0E08C
:10246000EBE3F0E08081282F2F70FE01E95AFF4F47
:102470008081882F90E082959295907F9827807F29
:102480009827822B8C938BE061E00E94640980E0A6
:1024900090E0A0E2B1E48BA39CA3ADA3BEA36BA18B
:1024A0007CA18DA19EA12BEA3AEA4AEA50E40E945F
:1024B0001F02DC01CB018F8F98A3A9A3BAA36F8D54
:1024C00078A189A19AA120E030E040E85FE30E9472
:1024D000250488231CF481E08E8F91C06F8D78A134
:1024E00089A19AA120E030E04FE753E40E94C503A0
:1024F00018160CF07BC06BA17CA18DA19EA120E0E1
:1025000030E04AE754E40E941903DC01CB018A8FD2
:102510009B8FAC8FBD8F6A8D7B8D8C8D9D8D20E0C8
:1025200030E04AE755E40E941F02DC01CB018E8BAC
:102530009F8BA88FB98F6E897F89888D998D20E0B8
:1025400030E040E85FE30E94250488232CF481E01A
:1025500090E09D8B8C8B3FC06E897F89888D998D93
:1025600020E03FEF4FE757E40E94C50318164CF5F3
:102570006A8D7B8D8C8D9D8D20E030E040E251E4B2
:102580000E941F02DC01CB01BC01CD010E94490069
:10259000DC01CB019D8B8C8B0FC080E991E09B8B84
:1025A0008A8B8A899B890197F1F79B8B8A8B8C890F
:1025B0009D8901979D8B8C8B8C899D89009769F7EC
:1025C00024C06E897F89888D998D0E944900DC0125
:1025D000CB019D8B8C8B8C899D89998B888B88896D
:1025E00099890197F1F7998B888B0FC06F8D78A12E
:1025F00089A19AA10E944900DC01CB018E8F8E8DAA
:102600008F878F858A95F1F78F878BE060E00E9436
:10261000640980E090E0A0E2B1E48B879C87AD87FD
:10262000BE876B857C858D859E8520E030E04AE7FE
:1026300055E40E941F02DC01CB018F839887A98794
:10264000BA876F81788589859A8520E030E040E8F7
:102650005FE30E94250488232CF481E090E09E83B0
:102660008D833FC06F81788589859A8520E03FEF13
:102670004FE757E40E94C50318164CF56B857C851F
:102680008D859E8520E030E040E251E40E941F02EB
:10269000DC01CB01BC01CD010E944900DC01CB0172
:1026A0009E838D830FC080E991E09C838B838B8117
:1026B0009C810197F1F79C838B838D819E8101978B
:1026C0009E838D838D819E81009769F714C06F81F1
:1026D000788589859A850E944900DC01CB019E831B
:1026E0008D838D819E819A83898389819A810197C7
:1026F000F1F79A838983C95ADF4F0FB6F894DEBF8A
:102700000FBECDBFCF91DF911F910F910895DF9341
:10271000CF9300D000D0CDB7DEB79C838B831A82D5
:1027200019820FC029813A818B819C81FC01E20FC3
:10273000F31F80810E94BB0C89819A8101969A8344
:10274000898329813A818B819C81FC01E20FF31FEF
:102750008081882339F70F900F900F900F90CF91C1
:10276000DF910895DF93CF93CDB7DEB782E161E0CB
:102770000E94640987E161E00E946409CF91DF91C2
:102780000895DF93CF93CDB7DEB78091CA009091C3
:10279000CB0001969093CB008093CA00CF91DF913C
:1027A0000895DF93CF93CDB7DEB7EDE2F0E080E59B
:1027B0008083AEE2B0E0EEE2F0E0808181708C9345
:1027C000CF91DF910895DF93CF93CDB7DEB76D97AB
:1027D0000FB6F894DEBF0FBECDBF0E944F0AEAE3EA
:1027E000F0E08FEF80830E940008E7E3F0E080EBE9
:1027F00080838FE00E9461088D8FEBE3F0E08D8D88
:10280000808380E090E0A8E4B3E4898F9A8FAB8F57
:10281000BC8F698D7A8D8B8D9C8D20E030E04AE7EE
:1028200055E40E941F02DC01CB018D8B9E8BAF8B88
:10283000B88F6D897E898F89988D20E030E040E8DF
:102840005FE30E94250488232CF481E090E09C8BB8
:102850008B8B3FC06D897E898F89988D20E03FEFFB
:102860004FE757E40E94C50318164CF5698D7A8D21
:102870008B8D9C8D20E030E040E251E40E941F02ED
:10288000DC01CB01BC01CD010E944900DC01CB0180
:102890009C8B8B8B0FC080E991E09A8B898B898907
:1028A0009A890197F1F79A8B898B8B899C8901977B
:1028B0009C8B8B8B8B899C89009769F714C06D89E1
:1028C0007E898F89988D0E944900DC01CB019C8B09
:1028D0008B8B8B899C89988B8F878F8598890197A3
:1028E000F1F7988B8F8781E00E9461088D8FEBE371
:1028F000F0E08D8D808380E090E0A8E4B3E48B87E6
:102900009C87AD87BE876B857C858D859E8520E005
:1029100030E04AE755E40E941F02DC01CB018F83BF
:102920009887A987BA876F81788589859A8520E0FD
:1029300030E040E85FE30E94250488232CF481E026
:1029400090E09E838D833FC06F81788589859A85CD
:1029500020E03FEF4FE757E40E94C50318164CF5FF
:102960006B857C858D859E8520E030E040E251E4DA
:102970000E941F02DC01CB01BC01CD010E94490075
:10298000DC01CB019E838D830FC080E991E09C83A5
:102990008B838B819C810197F1F79C838B838D8145
:1029A0009E8101979E838D838D819E81009769F71B
:1029B00020CF6F81788589859A850E944900DC0146
:1029C000CB019E838D838D819E819A8389838981AA
:1029D0009A810197F1F79A8389830BCFA1E21A2E8E
:1029E000AA1BBB1BFD010DC0AA1FBB1FEE1FFF1FB3
:1029F000A217B307E407F50720F0A21BB30BE40B03
:102A0000F50B661F771F881F991F1A9469F7609549
:102A10007095809590959B01AC01BD01CF01089503
:102A20002F923F924F925F926F927F928F929F92DE
:102A3000AF92BF92CF92DF92EF92FF920F931F93CC
:102A4000CF93DF93CDB7DEB7CA1BDB0B0FB6F8947D
:102A5000DEBF0FBECDBF09942A88398848885F84BD
:102A60006E847D848C849B84AA84B984C884DF802E
:102A7000EE80FD800C811B81AA81B981CE0FD11D12
:102A80000FB6F894DEBF0FBECDBFED010895F894E8
:022A9000FFCF76
:102A92000000000000000000000001000001000032
:102AA2000002010000030100000401000005010012
:102AB20000060100000701000101010001020100FE
:102AC20001030100010401000105010001060000EB
:102AD20001070100020201000203010002040100D9
:102AE20002050100020601000207010003030100C2
:0A2AF20003040100030501000A00BF
:00000001FF
